{
  "contractName": "Oracle",
  "abi": [
    {
      "anonymous": false,
      "inputs": [
        {
          "indexed": false,
          "internalType": "address",
          "name": "baseAddress",
          "type": "address"
        },
        {
          "indexed": false,
          "internalType": "uint256",
          "name": "requestId",
          "type": "uint256"
        }
      ],
      "name": "GetEvent",
      "type": "event"
    },
    {
      "inputs": [],
      "name": "requestId",
      "outputs": [
        {
          "internalType": "uint256",
          "name": "",
          "type": "uint256"
        }
      ],
      "stateMutability": "view",
      "type": "function",
      "constant": true
    },
    {
      "inputs": [],
      "name": "receiveRequest",
      "outputs": [
        {
          "internalType": "uint256",
          "name": "",
          "type": "uint256"
        }
      ],
      "stateMutability": "nonpayable",
      "type": "function"
    },
    {
      "inputs": [
        {
          "internalType": "uint256",
          "name": "_randomNumber",
          "type": "uint256"
        },
        {
          "internalType": "address",
          "name": "_baseAddress",
          "type": "address"
        },
        {
          "internalType": "uint256",
          "name": "_requestId",
          "type": "uint256"
        }
      ],
      "name": "returnRequest",
      "outputs": [],
      "stateMutability": "nonpayable",
      "type": "function"
    }
  ],
  "bytecode": "0x60806040526000805534801561001457600080fd5b5061054b806100246000396000f3fe608060405234801561001057600080fd5b50600436106100405760003560e01c80626d6cae146100455780636ac05ca314610063578063c593060614610081575b600080fd5b61004d61009d565b60405161005a919061029c565b60405180910390f35b61006b6100a3565b604051610078919061029c565b60405180910390f35b61009b60048036038101906100969190610346565b61012b565b005b60005481565b60008060008154809291906100b7906103c8565b919050555060018060008054815260200190815260200160002060006101000a81548160ff0219169083151502179055507f611ba7a862b26f9e2f7146974bbca7bb9a046e4938f77e55e32d1c8ead97fca43360005460405161011b929190610420565b60405180910390a1600054905090565b6001600082815260200190815260200160002060009054906101000a900460ff1661018b576040517f08c379a0000000000000000000000000000000000000000000000000000000008152600401610182906104cc565b60405180910390fd5b6001600082815260200190815260200160002060006101000a81549060ff021916905581600260006101000a81548173ffffffffffffffffffffffffffffffffffffffff021916908373ffffffffffffffffffffffffffffffffffffffff160217905550600260009054906101000a900473ffffffffffffffffffffffffffffffffffffffff1673ffffffffffffffffffffffffffffffffffffffff1663b5d73ba484836040518363ffffffff1660e01b815260040161024c9291906104ec565b600060405180830381600087803b15801561026657600080fd5b505af115801561027a573d6000803e3d6000fd5b50505050505050565b6000819050919050565b61029681610283565b82525050565b60006020820190506102b1600083018461028d565b92915050565b600080fd5b6102c581610283565b81146102d057600080fd5b50565b6000813590506102e2816102bc565b92915050565b600073ffffffffffffffffffffffffffffffffffffffff82169050919050565b6000610313826102e8565b9050919050565b61032381610308565b811461032e57600080fd5b50565b6000813590506103408161031a565b92915050565b60008060006060848603121561035f5761035e6102b7565b5b600061036d868287016102d3565b935050602061037e86828701610331565b925050604061038f868287016102d3565b9150509250925092565b7f4e487b7100000000000000000000000000000000000000000000000000000000600052601160045260246000fd5b60006103d382610283565b91507fffffffffffffffffffffffffffffffffffffffffffffffffffffffffffffffff82141561040657610405610399565b5b600182019050919050565b61041a81610308565b82525050565b60006040820190506104356000830185610411565b610442602083018461028d565b9392505050565b600082825260208201905092915050565b7f546869732072657175657374206973206e6f7420696e206d792070656e64696e60008201527f67206c6973742e00000000000000000000000000000000000000000000000000602082015250565b60006104b6602783610449565b91506104c18261045a565b604082019050919050565b600060208201905081810360008301526104e5816104a9565b9050919050565b6000604082019050610501600083018561028d565b61050e602083018461028d565b939250505056fea2646970667358221220ab125791ac1d4f5ef5ad658146d5546cd4801d9eea8b788ea6ce9b221a961ecb64736f6c634300080a0033",
  "immutableReferences": {},
  "source": "// SPDX-License-Identifier: MIT\npragma solidity ^0.8.0;\n\ninterface BaseInterface {\n   function callback(uint256, uint256) external ;\n}\ncontract Oracle  {\n  uint public requestId = 0;\n  mapping(uint256=>bool) pendingRequests;\n  event GetEvent(address baseAddress, uint requestId);\n  BaseInterface obj;\n  function receiveRequest() public returns (uint256) {\n    requestId++;  \n    pendingRequests[requestId] = true;\n    emit GetEvent(msg.sender, requestId);\n    return requestId;\n  }\n\n  function returnRequest(uint256 _randomNumber, address _baseAddress, uint256 _requestId) public{\n    require(pendingRequests[_requestId], \"This request is not in my pending list.\");\n    delete pendingRequests[_requestId];\n    obj = BaseInterface(_baseAddress);\n    obj.callback(_randomNumber, _requestId);\n  }\n}",
  "sourcePath": "/home/harsh/Desktop/ETHEREUM_PROJECTS/Oracle-Example/OracleContact/contracts/OracleContact.sol",
  "compiler": {
    "name": "solc",
    "version": "0.8.10+commit.fc410830.Emscripten.clang"
  },
  "schemaVersion": "3.4.3",
  "updatedAt": "2022-01-05T18:44:52.788Z",
  "networkType": "ethereum",
  "devdoc": {
    "kind": "dev",
    "methods": {},
    "version": 1
  },
  "userdoc": {
    "kind": "user",
    "methods": {},
    "version": 1
  }
}