{
  "contractName": "WinnerOracle",
  "abi": [
    {
      "anonymous": false,
      "inputs": [
        {
          "indexed": false,
          "internalType": "address",
          "name": "callerAddress",
          "type": "address"
        },
        {
          "indexed": false,
          "internalType": "uint256",
          "name": "id",
          "type": "uint256"
        }
      ],
      "name": "GetWinnerEvent",
      "type": "event"
    },
    {
      "anonymous": false,
      "inputs": [
        {
          "indexed": true,
          "internalType": "address",
          "name": "previousOwner",
          "type": "address"
        },
        {
          "indexed": true,
          "internalType": "address",
          "name": "newOwner",
          "type": "address"
        }
      ],
      "name": "OwnershipTransferred",
      "type": "event"
    },
    {
      "anonymous": false,
      "inputs": [
        {
          "indexed": false,
          "internalType": "uint256",
          "name": "winner",
          "type": "uint256"
        },
        {
          "indexed": false,
          "internalType": "address",
          "name": "callerAddress",
          "type": "address"
        }
      ],
      "name": "SetWinnerEvent",
      "type": "event"
    },
    {
      "inputs": [],
      "name": "owner",
      "outputs": [
        {
          "internalType": "address",
          "name": "",
          "type": "address"
        }
      ],
      "stateMutability": "view",
      "type": "function",
      "constant": true
    },
    {
      "inputs": [],
      "name": "renounceOwnership",
      "outputs": [],
      "stateMutability": "nonpayable",
      "type": "function"
    },
    {
      "inputs": [
        {
          "internalType": "address",
          "name": "newOwner",
          "type": "address"
        }
      ],
      "name": "transferOwnership",
      "outputs": [],
      "stateMutability": "nonpayable",
      "type": "function"
    },
    {
      "inputs": [],
      "name": "getWinner",
      "outputs": [
        {
          "internalType": "uint256",
          "name": "",
          "type": "uint256"
        }
      ],
      "stateMutability": "nonpayable",
      "type": "function"
    },
    {
      "inputs": [
        {
          "internalType": "uint256",
          "name": "_winner",
          "type": "uint256"
        },
        {
          "internalType": "address",
          "name": "_callerAddress",
          "type": "address"
        },
        {
          "internalType": "uint256",
          "name": "_id",
          "type": "uint256"
        }
      ],
      "name": "setWinner",
      "outputs": [],
      "stateMutability": "nonpayable",
      "type": "function"
    }
  ],
  "bytecode": "0x608060405260006001556103e860025534801561001b57600080fd5b5061003861002d61003d60201b60201c565b61004560201b60201c565b610109565b600033905090565b60008060009054906101000a900473ffffffffffffffffffffffffffffffffffffffff169050816000806101000a81548173ffffffffffffffffffffffffffffffffffffffff021916908373ffffffffffffffffffffffffffffffffffffffff1602179055508173ffffffffffffffffffffffffffffffffffffffff168173ffffffffffffffffffffffffffffffffffffffff167f8be0079c531659141344cd1fd0a4f28419497f9722a3daafe3b4186f6b6457e060405160405180910390a35050565b610b03806101186000396000f3fe608060405234801561001057600080fd5b50600436106100575760003560e01c806351b422831461005c578063715018a6146100785780638da5cb5b146100825780638e7ea5b2146100a0578063f2fde38b146100be575b600080fd5b6100766004803603810190610071919061065f565b6100da565b005b61008061028a565b005b61008a610312565b60405161009791906106c1565b60405180910390f35b6100a861033b565b6040516100b591906106eb565b60405180910390f35b6100d860048036038101906100d39190610706565b610402565b005b6100e26104fa565b73ffffffffffffffffffffffffffffffffffffffff16610100610312565b73ffffffffffffffffffffffffffffffffffffffff1614610156576040517f08c379a000000000000000000000000000000000000000000000000000000000815260040161014d90610790565b60405180910390fd5b6003600082815260200190815260200160002060009054906101000a900460ff166101b6576040517f08c379a00000000000000000000000000000000000000000000000000000000081526004016101ad90610822565b60405180910390fd5b6003600082815260200190815260200160002060006101000a81549060ff021916905560008290508073ffffffffffffffffffffffffffffffffffffffff1663b5d73ba485846040518363ffffffff1660e01b8152600401610219929190610842565b600060405180830381600087803b15801561023357600080fd5b505af1158015610247573d6000803e3d6000fd5b505050507ff7b777bbcd108971a3fccf2386349c0b616ae61233f63a84c82c6eaafd7f8b2c848460405161027c92919061086b565b60405180910390a150505050565b6102926104fa565b73ffffffffffffffffffffffffffffffffffffffff166102b0610312565b73ffffffffffffffffffffffffffffffffffffffff1614610306576040517f08c379a00000000000000000000000000000000000000000000000000000000081526004016102fd90610790565b60405180910390fd5b6103106000610502565b565b60008060009054906101000a900473ffffffffffffffffffffffffffffffffffffffff16905090565b600060016000815480929190610350906108c3565b91905055506000600254423360015460405160200161037193929190610975565b6040516020818303038152906040528051906020012060001c61039491906109e1565b905060016003600083815260200190815260200160002060006101000a81548160ff0219169083151502179055507f798a4c4444954e905cfc8a6469fbf273c57621e70870735eda04b1507cec669433826040516103f3929190610a12565b60405180910390a18091505090565b61040a6104fa565b73ffffffffffffffffffffffffffffffffffffffff16610428610312565b73ffffffffffffffffffffffffffffffffffffffff161461047e576040517f08c379a000000000000000000000000000000000000000000000000000000000815260040161047590610790565b60405180910390fd5b600073ffffffffffffffffffffffffffffffffffffffff168173ffffffffffffffffffffffffffffffffffffffff1614156104ee576040517f08c379a00000000000000000000000000000000000000000000000000000000081526004016104e590610aad565b60405180910390fd5b6104f781610502565b50565b600033905090565b60008060009054906101000a900473ffffffffffffffffffffffffffffffffffffffff169050816000806101000a81548173ffffffffffffffffffffffffffffffffffffffff021916908373ffffffffffffffffffffffffffffffffffffffff1602179055508173ffffffffffffffffffffffffffffffffffffffff168173ffffffffffffffffffffffffffffffffffffffff167f8be0079c531659141344cd1fd0a4f28419497f9722a3daafe3b4186f6b6457e060405160405180910390a35050565b600080fd5b6000819050919050565b6105de816105cb565b81146105e957600080fd5b50565b6000813590506105fb816105d5565b92915050565b600073ffffffffffffffffffffffffffffffffffffffff82169050919050565b600061062c82610601565b9050919050565b61063c81610621565b811461064757600080fd5b50565b60008135905061065981610633565b92915050565b600080600060608486031215610678576106776105c6565b5b6000610686868287016105ec565b93505060206106978682870161064a565b92505060406106a8868287016105ec565b9150509250925092565b6106bb81610621565b82525050565b60006020820190506106d660008301846106b2565b92915050565b6106e5816105cb565b82525050565b600060208201905061070060008301846106dc565b92915050565b60006020828403121561071c5761071b6105c6565b5b600061072a8482850161064a565b91505092915050565b600082825260208201905092915050565b7f4f776e61626c653a2063616c6c6572206973206e6f7420746865206f776e6572600082015250565b600061077a602083610733565b915061078582610744565b602082019050919050565b600060208201905081810360008301526107a98161076d565b9050919050565b7f546869732072657175657374206973206e6f7420696e206d792070656e64696e60008201527f67206c6973742e00000000000000000000000000000000000000000000000000602082015250565b600061080c602783610733565b9150610817826107b0565b604082019050919050565b6000602082019050818103600083015261083b816107ff565b9050919050565b600060408201905061085760008301856106dc565b61086460208301846106dc565b9392505050565b600060408201905061088060008301856106dc565b61088d60208301846106b2565b9392505050565b7f4e487b7100000000000000000000000000000000000000000000000000000000600052601160045260246000fd5b60006108ce826105cb565b91507fffffffffffffffffffffffffffffffffffffffffffffffffffffffffffffffff82141561090157610900610894565b5b600182019050919050565b6000819050919050565b610927610922826105cb565b61090c565b82525050565b60008160601b9050919050565b60006109458261092d565b9050919050565b60006109578261093a565b9050919050565b61096f61096a82610621565b61094c565b82525050565b60006109818286610916565b602082019150610991828561095e565b6014820191506109a18284610916565b602082019150819050949350505050565b7f4e487b7100000000000000000000000000000000000000000000000000000000600052601260045260246000fd5b60006109ec826105cb565b91506109f7836105cb565b925082610a0757610a066109b2565b5b828206905092915050565b6000604082019050610a2760008301856106b2565b610a3460208301846106dc565b9392505050565b7f4f776e61626c653a206e6577206f776e657220697320746865207a65726f206160008201527f6464726573730000000000000000000000000000000000000000000000000000602082015250565b6000610a97602683610733565b9150610aa282610a3b565b604082019050919050565b60006020820190508181036000830152610ac681610a8a565b905091905056fea2646970667358221220029ccb176deb7becab7c5de78b33fc4e3bd4511a063b2dbcaabca52e9d58d6da64736f6c634300080a0033",
  "immutableReferences": {},
  "source": "// SPDX-License-Identifier: MIT\npragma solidity ^0.8.0;\nimport \"./BettingContractInterface.sol\";\nimport \"@openzeppelin/contracts/access/Ownable.sol\";\n\ncontract WinnerOracle is Ownable {\n  uint private randNonce = 0;\n  uint private modulus = 1000;\n  mapping(uint256=>bool) pendingRequests;\n  event GetWinnerEvent(address callerAddress, uint id);\n  event SetWinnerEvent(uint256 winner, address callerAddress);\n  function getWinner() public returns (uint256) {\n    randNonce++;\n    uint id = uint(keccak256(abi.encodePacked(block.timestamp, msg.sender, randNonce))) % modulus;\n    pendingRequests[id] = true;\n    emit GetWinnerEvent(msg.sender, id);\n    return id;\n  }\n  function setWinner(uint256 _winner, address _callerAddress, uint256 _id) public onlyOwner {\n    require(pendingRequests[_id], \"This request is not in my pending list.\");\n    delete pendingRequests[_id];\n    BettingContractInterface bettingContractInstance;\n    bettingContractInstance = BettingContractInterface(_callerAddress);\n    bettingContractInstance.callback(_winner, _id);\n    emit SetWinnerEvent(_winner, _callerAddress);\n  }\n}\n",
  "sourcePath": "/home/harsh/Desktop/HORSE-RACING/oracle/contracts/WinnerOracle.sol",
  "compiler": {
    "name": "solc",
    "version": "0.8.10+commit.fc410830.Emscripten.clang"
  },
  "schemaVersion": "3.4.3",
  "updatedAt": "2022-01-03T13:21:44.233Z",
  "networkType": "ethereum",
  "devdoc": {
    "kind": "dev",
    "methods": {
      "owner()": {
        "details": "Returns the address of the current owner."
      },
      "renounceOwnership()": {
        "details": "Leaves the contract without owner. It will not be possible to call `onlyOwner` functions anymore. Can only be called by the current owner. NOTE: Renouncing ownership will leave the contract without an owner, thereby removing any functionality that is only available to the owner."
      },
      "transferOwnership(address)": {
        "details": "Transfers ownership of the contract to a new account (`newOwner`). Can only be called by the current owner."
      }
    },
    "version": 1
  },
  "userdoc": {
    "kind": "user",
    "methods": {},
    "version": 1
  }
}