{
  "contractName": "HorseBetting",
  "abi": [
    {
      "anonymous": false,
      "inputs": [
        {
          "indexed": true,
          "internalType": "address",
          "name": "previousOwner",
          "type": "address"
        },
        {
          "indexed": true,
          "internalType": "address",
          "name": "newOwner",
          "type": "address"
        }
      ],
      "name": "OwnershipTransferred",
      "type": "event"
    },
    {
      "anonymous": false,
      "inputs": [
        {
          "indexed": false,
          "internalType": "uint256",
          "name": "id",
          "type": "uint256"
        }
      ],
      "name": "ReceivedNewRequestIdEvent",
      "type": "event"
    },
    {
      "anonymous": false,
      "inputs": [
        {
          "indexed": false,
          "internalType": "uint256",
          "name": "winner",
          "type": "uint256"
        },
        {
          "indexed": false,
          "internalType": "uint256",
          "name": "id",
          "type": "uint256"
        }
      ],
      "name": "WinnerUpdatedEvent",
      "type": "event"
    },
    {
      "anonymous": false,
      "inputs": [
        {
          "indexed": false,
          "internalType": "address",
          "name": "oracleAddress",
          "type": "address"
        }
      ],
      "name": "newOracleAddressEvent",
      "type": "event"
    },
    {
      "stateMutability": "payable",
      "type": "fallback",
      "payable": true
    },
    {
      "inputs": [
        {
          "internalType": "address",
          "name": "",
          "type": "address"
        }
      ],
      "name": "balanceOf",
      "outputs": [
        {
          "internalType": "uint256",
          "name": "",
          "type": "uint256"
        }
      ],
      "stateMutability": "view",
      "type": "function",
      "constant": true
    },
    {
      "inputs": [
        {
          "internalType": "uint256",
          "name": "",
          "type": "uint256"
        }
      ],
      "name": "betters",
      "outputs": [
        {
          "internalType": "address",
          "name": "",
          "type": "address"
        }
      ],
      "stateMutability": "view",
      "type": "function",
      "constant": true
    },
    {
      "inputs": [
        {
          "internalType": "address",
          "name": "",
          "type": "address"
        }
      ],
      "name": "bettingOn",
      "outputs": [
        {
          "internalType": "uint256",
          "name": "",
          "type": "uint256"
        }
      ],
      "stateMutability": "view",
      "type": "function",
      "constant": true
    },
    {
      "inputs": [],
      "name": "matchCreated",
      "outputs": [
        {
          "internalType": "bool",
          "name": "",
          "type": "bool"
        }
      ],
      "stateMutability": "view",
      "type": "function",
      "constant": true
    },
    {
      "inputs": [],
      "name": "matchTime",
      "outputs": [
        {
          "internalType": "uint256",
          "name": "",
          "type": "uint256"
        }
      ],
      "stateMutability": "view",
      "type": "function",
      "constant": true
    },
    {
      "inputs": [],
      "name": "owner",
      "outputs": [
        {
          "internalType": "address",
          "name": "",
          "type": "address"
        }
      ],
      "stateMutability": "view",
      "type": "function",
      "constant": true
    },
    {
      "inputs": [],
      "name": "renounceOwnership",
      "outputs": [],
      "stateMutability": "nonpayable",
      "type": "function"
    },
    {
      "inputs": [],
      "name": "totalBet",
      "outputs": [
        {
          "internalType": "uint256",
          "name": "",
          "type": "uint256"
        }
      ],
      "stateMutability": "view",
      "type": "function",
      "constant": true
    },
    {
      "inputs": [],
      "name": "totalBetOnWinner",
      "outputs": [
        {
          "internalType": "uint256",
          "name": "",
          "type": "uint256"
        }
      ],
      "stateMutability": "view",
      "type": "function",
      "constant": true
    },
    {
      "inputs": [
        {
          "internalType": "address",
          "name": "newOwner",
          "type": "address"
        }
      ],
      "name": "transferOwnership",
      "outputs": [],
      "stateMutability": "nonpayable",
      "type": "function"
    },
    {
      "inputs": [],
      "name": "winner",
      "outputs": [
        {
          "internalType": "uint256",
          "name": "",
          "type": "uint256"
        }
      ],
      "stateMutability": "view",
      "type": "function",
      "constant": true
    },
    {
      "stateMutability": "payable",
      "type": "receive",
      "payable": true
    },
    {
      "inputs": [
        {
          "internalType": "address",
          "name": "_oracleInstanceAddress",
          "type": "address"
        }
      ],
      "name": "setOracleInstanceAddress",
      "outputs": [],
      "stateMutability": "nonpayable",
      "type": "function"
    },
    {
      "inputs": [
        {
          "internalType": "uint256",
          "name": "_matchTime",
          "type": "uint256"
        }
      ],
      "name": "createMatch",
      "outputs": [],
      "stateMutability": "nonpayable",
      "type": "function"
    },
    {
      "inputs": [
        {
          "internalType": "uint256",
          "name": "_bettingOnIdx",
          "type": "uint256"
        }
      ],
      "name": "collectFunds",
      "outputs": [],
      "stateMutability": "payable",
      "type": "function",
      "payable": true
    },
    {
      "inputs": [],
      "name": "matchResult",
      "outputs": [
        {
          "internalType": "uint256",
          "name": "",
          "type": "uint256"
        }
      ],
      "stateMutability": "nonpayable",
      "type": "function"
    },
    {
      "inputs": [],
      "name": "sendFunds",
      "outputs": [],
      "stateMutability": "payable",
      "type": "function",
      "payable": true
    },
    {
      "inputs": [
        {
          "internalType": "uint256",
          "name": "_winner",
          "type": "uint256"
        },
        {
          "internalType": "uint256",
          "name": "_id",
          "type": "uint256"
        }
      ],
      "name": "callback",
      "outputs": [],
      "stateMutability": "nonpayable",
      "type": "function"
    }
  ],
  "bytecode": "0x60806040526040518060800160405280600160ff168152602001600260ff168152602001600360ff168152602001600460ff1681525060019060046200004792919062000168565b506000600560006101000a81548160ff02191690831515021790555060006008553480156200007557600080fd5b50620000966200008a6200009c60201b60201c565b620000a460201b60201c565b620001de565b600033905090565b60008060009054906101000a900473ffffffffffffffffffffffffffffffffffffffff169050816000806101000a81548173ffffffffffffffffffffffffffffffffffffffff021916908373ffffffffffffffffffffffffffffffffffffffff1602179055508173ffffffffffffffffffffffffffffffffffffffff168173ffffffffffffffffffffffffffffffffffffffff167f8be0079c531659141344cd1fd0a4f28419497f9722a3daafe3b4186f6b6457e060405160405180910390a35050565b828054828255906000526020600020908101928215620001ac579160200282015b82811115620001ab578251829060ff1690559160200191906001019062000189565b5b509050620001bb9190620001bf565b5090565b5b80821115620001da576000816000905550600101620001c0565b5090565b611a6580620001ee6000396000f3fe6080604052600436106101025760003560e01c80639fda5d6211610095578063df7bf70411610064578063df7bf704146102fd578063dfbf53ae14610328578063e9e17a9e14610353578063f2fde38b1461037c578063fe5e1853146103a557610109565b80639fda5d6214610243578063a9bcdd8814610280578063b5d73ba4146102ab578063b67a88f9146102d457610109565b8063715018a6116100d1578063715018a6146101cc5780638d68cf59146101e35780638da5cb5b146101ed57806394050bd81461021857610109565b80630bf8b0911461010b578063597e47341461013657806365f994471461015257806370a082311461018f57610109565b3661010957005b005b34801561011757600080fd5b506101206103d0565b60405161012d9190611236565b60405180910390f35b610150600480360381019061014b9190611282565b6103d6565b005b34801561015e57600080fd5b506101796004803603810190610174919061130d565b610656565b6040516101869190611236565b60405180910390f35b34801561019b57600080fd5b506101b660048036038101906101b1919061130d565b61066e565b6040516101c39190611236565b60405180910390f35b3480156101d857600080fd5b506101e1610686565b005b6101eb61070e565b005b3480156101f957600080fd5b506102026107e1565b60405161020f9190611349565b60405180910390f35b34801561022457600080fd5b5061022d61080a565b60405161023a9190611236565b60405180910390f35b34801561024f57600080fd5b5061026a60048036038101906102659190611282565b610810565b6040516102779190611349565b60405180910390f35b34801561028c57600080fd5b5061029561084f565b6040516102a2919061137f565b60405180910390f35b3480156102b757600080fd5b506102d260048036038101906102cd919061139a565b610862565b005b3480156102e057600080fd5b506102fb60048036038101906102f69190611282565b6109b9565b005b34801561030957600080fd5b50610312610ac2565b60405161031f9190611236565b60405180910390f35b34801561033457600080fd5b5061033d610ebb565b60405161034a9190611236565b60405180910390f35b34801561035f57600080fd5b5061037a6004803603810190610375919061130d565b610ec1565b005b34801561038857600080fd5b506103a3600480360381019061039e919061130d565b61103d565b005b3480156103b157600080fd5b506103ba611135565b6040516103c79190611236565b60405180910390f35b60065481565b60003411610419576040517f08c379a00000000000000000000000000000000000000000000000000000000081526004016104109061145d565b60405180910390fd5b6000600260003373ffffffffffffffffffffffffffffffffffffffff1673ffffffffffffffffffffffffffffffffffffffff168152602001908152602001600020541461049b576040517f08c379a0000000000000000000000000000000000000000000000000000000008152600401610492906114c9565b60405180910390fd5b600560009054906101000a900460ff166104ea576040517f08c379a00000000000000000000000000000000000000000000000000000000081526004016104e190611535565b60405180910390fd5b6001805490508110610531576040517f08c379a0000000000000000000000000000000000000000000000000000000008152600401610528906115a1565b60405180910390fd5b34600260003373ffffffffffffffffffffffffffffffffffffffff1673ffffffffffffffffffffffffffffffffffffffff1681526020019081526020016000208190555060018181548110610589576105886115c1565b5b9060005260206000200154600360003373ffffffffffffffffffffffffffffffffffffffff1673ffffffffffffffffffffffffffffffffffffffff168152602001908152602001600020819055506004339080600181540180825580915050600190039060005260206000200160009091909190916101000a81548173ffffffffffffffffffffffffffffffffffffffff021916908373ffffffffffffffffffffffffffffffffffffffff160217905550346008600082825461064c919061161f565b9250508190555050565b60036020528060005260406000206000915090505481565b60026020528060005260406000206000915090505481565b61068e61113b565b73ffffffffffffffffffffffffffffffffffffffff166106ac6107e1565b73ffffffffffffffffffffffffffffffffffffffff1614610702576040517f08c379a00000000000000000000000000000000000000000000000000000000081526004016106f9906116c1565b60405180910390fd5b61070c6000611143565b565b6000600260003373ffffffffffffffffffffffffffffffffffffffff1673ffffffffffffffffffffffffffffffffffffffff1681526020019081526020016000205490506000600260003373ffffffffffffffffffffffffffffffffffffffff1673ffffffffffffffffffffffffffffffffffffffff168152602001908152602001600020819055503373ffffffffffffffffffffffffffffffffffffffff166108fc829081150290604051600060405180830381858888f193505050501580156107dd573d6000803e3d6000fd5b5050565b60008060009054906101000a900473ffffffffffffffffffffffffffffffffffffffff16905090565b60095481565b6004818154811061082057600080fd5b906000526020600020016000915054906101000a900473ffffffffffffffffffffffffffffffffffffffff1681565b600560009054906101000a900460ff1681565b600a60009054906101000a900473ffffffffffffffffffffffffffffffffffffffff1673ffffffffffffffffffffffffffffffffffffffff163373ffffffffffffffffffffffffffffffffffffffff16146108f2576040517f08c379a00000000000000000000000000000000000000000000000000000000081526004016108e990611753565b60405180910390fd5b600c600082815260200190815260200160002060009054906101000a900460ff16610952576040517f08c379a0000000000000000000000000000000000000000000000000000000008152600401610949906117e5565b60405180910390fd5b81600781905550600c600082815260200190815260200160002060006101000a81549060ff02191690557f2ce78444738f1435a9f030b6aa96b0478a0f9a830bf81a163a7dea01ea7ce6f082826040516109ad929190611805565b60405180910390a15050565b6109c161113b565b73ffffffffffffffffffffffffffffffffffffffff166109df6107e1565b73ffffffffffffffffffffffffffffffffffffffff1614610a35576040517f08c379a0000000000000000000000000000000000000000000000000000000008152600401610a2c906116c1565b60405180910390fd5b60001515600560009054906101000a900460ff16151514610a8b576040517f08c379a0000000000000000000000000000000000000000000000000000000008152600401610a829061187a565b60405180910390fd5b6001600560006101000a81548160ff021916908315150217905550610ab9814261120790919063ffffffff16565b60068190555050565b6000600560009054906101000a900460ff16610b13576040517f08c379a0000000000000000000000000000000000000000000000000000000008152600401610b0a90611535565b60405180910390fd5b6001600781905550600080600090505b600480549050811015610c64576007546003600060048481548110610b4b57610b4a6115c1565b5b9060005260206000200160009054906101000a900473ffffffffffffffffffffffffffffffffffffffff1673ffffffffffffffffffffffffffffffffffffffff1673ffffffffffffffffffffffffffffffffffffffff168152602001908152602001600020541415610c51576002600060048381548110610bcf57610bce6115c1565b5b9060005260206000200160009054906101000a900473ffffffffffffffffffffffffffffffffffffffff1673ffffffffffffffffffffffffffffffffffffffff1673ffffffffffffffffffffffffffffffffffffffff1681526020019081526020016000205491508160096000828254610c49919061161f565b925050819055505b8080610c5c9061189a565b915050610b23565b5060005b600480549050811015610eb1576007546003600060048481548110610c9057610c8f6115c1565b5b9060005260206000200160009054906101000a900473ffffffffffffffffffffffffffffffffffffffff1673ffffffffffffffffffffffffffffffffffffffff1673ffffffffffffffffffffffffffffffffffffffff168152602001908152602001600020541415610e1a576009546002600060048481548110610d1757610d166115c1565b5b9060005260206000200160009054906101000a900473ffffffffffffffffffffffffffffffffffffffff1673ffffffffffffffffffffffffffffffffffffffff1673ffffffffffffffffffffffffffffffffffffffff16815260200190815260200160002054610d879190611912565b600854610d949190611943565b6002600060048481548110610dac57610dab6115c1565b5b9060005260206000200160009054906101000a900473ffffffffffffffffffffffffffffffffffffffff1673ffffffffffffffffffffffffffffffffffffffff1673ffffffffffffffffffffffffffffffffffffffff16815260200190815260200160002081905550610e9e565b60006002600060048481548110610e3457610e336115c1565b5b9060005260206000200160009054906101000a900473ffffffffffffffffffffffffffffffffffffffff1673ffffffffffffffffffffffffffffffffffffffff1673ffffffffffffffffffffffffffffffffffffffff168152602001908152602001600020819055505b8080610ea99061189a565b915050610c68565b5060075491505090565b60075481565b610ec961113b565b73ffffffffffffffffffffffffffffffffffffffff16610ee76107e1565b73ffffffffffffffffffffffffffffffffffffffff1614610f3d576040517f08c379a0000000000000000000000000000000000000000000000000000000008152600401610f34906116c1565b60405180910390fd5b80600a60006101000a81548173ffffffffffffffffffffffffffffffffffffffff021916908373ffffffffffffffffffffffffffffffffffffffff160217905550600a60009054906101000a900473ffffffffffffffffffffffffffffffffffffffff16600b60006101000a81548173ffffffffffffffffffffffffffffffffffffffff021916908373ffffffffffffffffffffffffffffffffffffffff1602179055507f441e3b056b114797955165bd03bb8393fc1658a713f09225de4745a8d068bf7d600a60009054906101000a900473ffffffffffffffffffffffffffffffffffffffff166040516110329190611349565b60405180910390a150565b61104561113b565b73ffffffffffffffffffffffffffffffffffffffff166110636107e1565b73ffffffffffffffffffffffffffffffffffffffff16146110b9576040517f08c379a00000000000000000000000000000000000000000000000000000000081526004016110b0906116c1565b60405180910390fd5b600073ffffffffffffffffffffffffffffffffffffffff168173ffffffffffffffffffffffffffffffffffffffff161415611129576040517f08c379a000000000000000000000000000000000000000000000000000000000815260040161112090611a0f565b60405180910390fd5b61113281611143565b50565b60085481565b600033905090565b60008060009054906101000a900473ffffffffffffffffffffffffffffffffffffffff169050816000806101000a81548173ffffffffffffffffffffffffffffffffffffffff021916908373ffffffffffffffffffffffffffffffffffffffff1602179055508173ffffffffffffffffffffffffffffffffffffffff168173ffffffffffffffffffffffffffffffffffffffff167f8be0079c531659141344cd1fd0a4f28419497f9722a3daafe3b4186f6b6457e060405160405180910390a35050565b60008183611215919061161f565b905092915050565b6000819050919050565b6112308161121d565b82525050565b600060208201905061124b6000830184611227565b92915050565b600080fd5b61125f8161121d565b811461126a57600080fd5b50565b60008135905061127c81611256565b92915050565b60006020828403121561129857611297611251565b5b60006112a68482850161126d565b91505092915050565b600073ffffffffffffffffffffffffffffffffffffffff82169050919050565b60006112da826112af565b9050919050565b6112ea816112cf565b81146112f557600080fd5b50565b600081359050611307816112e1565b92915050565b60006020828403121561132357611322611251565b5b6000611331848285016112f8565b91505092915050565b611343816112cf565b82525050565b600060208201905061135e600083018461133a565b92915050565b60008115159050919050565b61137981611364565b82525050565b60006020820190506113946000830184611370565b92915050565b600080604083850312156113b1576113b0611251565b5b60006113bf8582860161126d565b92505060206113d08582860161126d565b9150509250929050565b600082825260208201905092915050565b7f41746c65737420312077656920697320726571756972656420666f722070617260008201527f74696369706174696f6e00000000000000000000000000000000000000000000602082015250565b6000611447602a836113da565b9150611452826113eb565b604082019050919050565b600060208201905081810360008301526114768161143a565b9050919050565b7f596f75206861766520616c726561647920706c6163656420796f757220626574600082015250565b60006114b36020836113da565b91506114be8261147d565b602082019050919050565b600060208201905081810360008301526114e2816114a6565b9050919050565b7f4e6f2063757272656e74206d6174636820697320617661696c61626c65000000600082015250565b600061151f601d836113da565b915061152a826114e9565b602082019050919050565b6000602082019050818103600083015261154e81611512565b9050919050565b7f686f727365206e6f742070726573656e74000000000000000000000000000000600082015250565b600061158b6011836113da565b915061159682611555565b602082019050919050565b600060208201905081810360008301526115ba8161157e565b9050919050565b7f4e487b7100000000000000000000000000000000000000000000000000000000600052603260045260246000fd5b7f4e487b7100000000000000000000000000000000000000000000000000000000600052601160045260246000fd5b600061162a8261121d565b91506116358361121d565b9250827fffffffffffffffffffffffffffffffffffffffffffffffffffffffffffffffff0382111561166a576116696115f0565b5b828201905092915050565b7f4f776e61626c653a2063616c6c6572206973206e6f7420746865206f776e6572600082015250565b60006116ab6020836113da565b91506116b682611675565b602082019050919050565b600060208201905081810360008301526116da8161169e565b9050919050565b7f596f7520617265206e6f7420617574686f72697a656420746f2063616c6c207460008201527f6869732066756e6374696f6e2e00000000000000000000000000000000000000602082015250565b600061173d602d836113da565b9150611748826116e1565b604082019050919050565b6000602082019050818103600083015261176c81611730565b9050919050565b7f546869732072657175657374206973206e6f7420696e206d792070656e64696e60008201527f67206c6973742e00000000000000000000000000000000000000000000000000602082015250565b60006117cf6027836113da565b91506117da82611773565b604082019050919050565b600060208201905081810360008301526117fe816117c2565b9050919050565b600060408201905061181a6000830185611227565b6118276020830184611227565b9392505050565b7f6f6e65206d6174636820617420612074696d6500000000000000000000000000600082015250565b60006118646013836113da565b915061186f8261182e565b602082019050919050565b6000602082019050818103600083015261189381611857565b9050919050565b60006118a58261121d565b91507fffffffffffffffffffffffffffffffffffffffffffffffffffffffffffffffff8214156118d8576118d76115f0565b5b600182019050919050565b7f4e487b7100000000000000000000000000000000000000000000000000000000600052601260045260246000fd5b600061191d8261121d565b91506119288361121d565b925082611938576119376118e3565b5b828204905092915050565b600061194e8261121d565b91506119598361121d565b9250817fffffffffffffffffffffffffffffffffffffffffffffffffffffffffffffffff0483118215151615611992576119916115f0565b5b828202905092915050565b7f4f776e61626c653a206e6577206f776e657220697320746865207a65726f206160008201527f6464726573730000000000000000000000000000000000000000000000000000602082015250565b60006119f96026836113da565b9150611a048261199d565b604082019050919050565b60006020820190508181036000830152611a28816119ec565b905091905056fea2646970667358221220b265d15ec1e1b1f38bdfe1ab40f4851669495be3741ad52e75b7157d3b8f0b4b64736f6c634300080a0033",
  "immutableReferences": {},
  "source": "// SPDX-License-Identifier: MIT\npragma solidity ^0.8.0;\nimport \"@openzeppelin/contracts/utils/math/SafeMath.sol\";\nimport \"@openzeppelin/contracts/access/Ownable.sol\";\nimport \"./getWinnerOracleInterface.sol\";\ncontract HorseBetting is Ownable{\n    using SafeMath for uint;\n    //address owner;\n    uint[] horses = [1, 2, 3, 4];\n    mapping(address=>uint) public balanceOf;\n    mapping(address=>uint) public bettingOn;\n    address[] public betters;\n    bool public matchCreated = false;\n    uint public matchTime;\n    uint public winner;\n    uint public totalBet=0;\n    uint public totalBetOnWinner;\n    address private oracleAddress;\n    GetWinnerOracleInterface private oracleInstance;\n    event newOracleAddressEvent(address oracleAddress);\n    event ReceivedNewRequestIdEvent(uint256 id);\n    event WinnerUpdatedEvent(uint256 winner, uint256 id);\n    mapping(uint256=>bool) myRequests;\n\n    function setOracleInstanceAddress (address _oracleInstanceAddress) public onlyOwner{\n      oracleAddress = _oracleInstanceAddress;\n      oracleInstance = GetWinnerOracleInterface(oracleAddress);\n      emit newOracleAddressEvent(oracleAddress);\n    } \n\n\n    function createMatch(uint _matchTime) external onlyOwner{\n        require(matchCreated==false,\"one match at a time\");\n        matchCreated = true;\n        matchTime = block.timestamp.add(_matchTime);\n    }\n    function collectFunds(uint _bettingOnIdx) external payable{\n        require(msg.value>0,\"Atlest 1 wei is required for participation\");\n        require(balanceOf[msg.sender]==0,\"You have already placed your bet\");\n        require(matchCreated,\"No current match is available\");\n        require(_bettingOnIdx<horses.length,\"horse not present\");\n        balanceOf[msg.sender]=msg.value;\n        bettingOn[msg.sender]=horses[_bettingOnIdx];\n        betters.push(msg.sender);\n        totalBet+=msg.value;\n    }\n    function matchResult() public returns (uint){\n        require(matchCreated,\"No current match is available\");\n        //require(block.timestamp<matchTime,\"Match has not yet started\");\n        winner = 1;\n        uint temp;\n\n        for(uint idx=0;idx<betters.length;idx++){\n             if(bettingOn[betters[idx]]==winner){\n                 temp=balanceOf[betters[idx]];\n                 totalBetOnWinner+=temp;\n             }\n        }\n        for(uint idx=0;idx<betters.length;idx++){\n            if(bettingOn[betters[idx]]==winner){\n                \n                balanceOf[betters[idx]]=totalBet*(balanceOf[betters[idx]]/totalBetOnWinner);\n                //bettingOn[betters[idx]]=0;\n            }\n             else{\n                 //bettingOn[betters[idx]]=0;\n                 balanceOf[betters[idx]]=0;\n             }\n        }\n        return winner;\n    }\n    function sendFunds() public payable{\n        uint amountToSend = balanceOf[msg.sender];\n        balanceOf[msg.sender]=0;\n        payable(msg.sender).transfer(amountToSend);\n    }\n    function getWinner() private{\n        uint id = oracleInstance.getWinner();\n        myRequests[id] = true;\n        emit ReceivedNewRequestIdEvent(id);\n    }\n    function callback(uint256 _winner, uint256 _id) public onlyOracle{\n        require(myRequests[_id], \"This request is not in my pending list.\");\n        winner = _winner;\n        delete myRequests[_id];\n        emit WinnerUpdatedEvent(_winner, _id);\n      }\n    modifier onlyOracle() {\n      require(msg.sender == oracleAddress, \"You are not authorized to call this function.\");\n      _;\n    }\n    receive() external payable{}\n    fallback() external payable{}\n\n}",
  "sourcePath": "/home/harsh/Desktop/HORSE-RACING/betting/contracts/HorseBetting.sol",
  "compiler": {
    "name": "solc",
    "version": "0.8.10+commit.fc410830.Emscripten.clang"
  },
  "schemaVersion": "3.4.3",
  "updatedAt": "2021-12-20T03:12:02.500Z",
  "networkType": "ethereum",
  "devdoc": {
    "kind": "dev",
    "methods": {
      "owner()": {
        "details": "Returns the address of the current owner."
      },
      "renounceOwnership()": {
        "details": "Leaves the contract without owner. It will not be possible to call `onlyOwner` functions anymore. Can only be called by the current owner. NOTE: Renouncing ownership will leave the contract without an owner, thereby removing any functionality that is only available to the owner."
      },
      "transferOwnership(address)": {
        "details": "Transfers ownership of the contract to a new account (`newOwner`). Can only be called by the current owner."
      }
    },
    "version": 1
  },
  "userdoc": {
    "kind": "user",
    "methods": {},
    "version": 1
  }
}