{
  "contractName": "Swapper",
  "abi": [
    {
      "inputs": [
        {
          "internalType": "address",
          "name": "_g_address",
          "type": "address"
        },
        {
          "internalType": "address",
          "name": "_s_address",
          "type": "address"
        },
        {
          "internalType": "address",
          "name": "_p_address",
          "type": "address"
        }
      ],
      "stateMutability": "nonpayable",
      "type": "constructor"
    },
    {
      "inputs": [],
      "name": "gold",
      "outputs": [
        {
          "internalType": "contract IERC20",
          "name": "",
          "type": "address"
        }
      ],
      "stateMutability": "view",
      "type": "function",
      "constant": true
    },
    {
      "inputs": [],
      "name": "platinum",
      "outputs": [
        {
          "internalType": "contract IERC20MB",
          "name": "",
          "type": "address"
        }
      ],
      "stateMutability": "view",
      "type": "function",
      "constant": true
    },
    {
      "inputs": [],
      "name": "silver",
      "outputs": [
        {
          "internalType": "contract IERC20",
          "name": "",
          "type": "address"
        }
      ],
      "stateMutability": "view",
      "type": "function",
      "constant": true
    },
    {
      "inputs": [
        {
          "internalType": "string",
          "name": "coin",
          "type": "string"
        }
      ],
      "name": "allowance",
      "outputs": [
        {
          "internalType": "uint256",
          "name": "",
          "type": "uint256"
        }
      ],
      "stateMutability": "view",
      "type": "function",
      "constant": true
    },
    {
      "inputs": [
        {
          "internalType": "string",
          "name": "token_",
          "type": "string"
        },
        {
          "internalType": "uint256",
          "name": "amount",
          "type": "uint256"
        }
      ],
      "name": "swap",
      "outputs": [],
      "stateMutability": "nonpayable",
      "type": "function"
    },
    {
      "inputs": [
        {
          "internalType": "string",
          "name": "token_",
          "type": "string"
        },
        {
          "internalType": "uint256",
          "name": "amount",
          "type": "uint256"
        }
      ],
      "name": "unswap",
      "outputs": [],
      "stateMutability": "nonpayable",
      "type": "function"
    }
  ],
  "bytecode": "0x60806040523480156200001157600080fd5b50604051620016473803806200164783398181016040528101906200003791906200016c565b826000806101000a81548173ffffffffffffffffffffffffffffffffffffffff021916908373ffffffffffffffffffffffffffffffffffffffff16021790555081600160006101000a81548173ffffffffffffffffffffffffffffffffffffffff021916908373ffffffffffffffffffffffffffffffffffffffff16021790555080600260006101000a81548173ffffffffffffffffffffffffffffffffffffffff021916908373ffffffffffffffffffffffffffffffffffffffff160217905550505050620001c8565b600080fd5b600073ffffffffffffffffffffffffffffffffffffffff82169050919050565b6000620001348262000107565b9050919050565b620001468162000127565b81146200015257600080fd5b50565b60008151905062000166816200013b565b92915050565b60008060006060848603121562000188576200018762000102565b5b6000620001988682870162000155565b9350506020620001ab8682870162000155565b9250506040620001be8682870162000155565b9150509250925092565b61146f80620001d86000396000f3fe608060405234801561001057600080fd5b50600436106100625760003560e01c80630314214c146100675780637625f5ae146100855780639d456b62146100b5578063c937b0a9146100d1578063f7aff659146100ef578063fbec6f211461010b575b600080fd5b61006f610129565b60405161007c9190610f74565b60405180910390f35b61009f600480360381019061009a91906110e9565b61014f565b6040516100ac919061114b565b60405180910390f35b6100cf60048036038101906100ca9190611192565b610429565b005b6100d961082c565b6040516100e6919061120f565b60405180910390f35b61010960048036038101906101049190611192565b610852565b005b610113610ed1565b6040516101209190610f74565b60405180910390f35b600160009054906101000a900473ffffffffffffffffffffffffffffffffffffffff1681565b60006040518060400160405280600481526020017f676f6c6400000000000000000000000000000000000000000000000000000000815250805190602001208280519060200120141561023f5760008054906101000a900473ffffffffffffffffffffffffffffffffffffffff1673ffffffffffffffffffffffffffffffffffffffff1663dd62ed3e33306040518363ffffffff1660e01b81526004016101f792919061124b565b602060405180830381865afa158015610214573d6000803e3d6000fd5b505050506040513d601f19601f820116820180604052508101906102389190611289565b9050610424565b6040518060400160405280600681526020017f73696c7665720000000000000000000000000000000000000000000000000000815250805190602001208280519060200120141561032f57600160009054906101000a900473ffffffffffffffffffffffffffffffffffffffff1673ffffffffffffffffffffffffffffffffffffffff1663dd62ed3e33306040518363ffffffff1660e01b81526004016102e792919061124b565b602060405180830381865afa158015610304573d6000803e3d6000fd5b505050506040513d601f19601f820116820180604052508101906103289190611289565b9050610424565b6040518060400160405280600881526020017f706c6174696e756d000000000000000000000000000000000000000000000000815250805190602001208280519060200120141561041f57600260009054906101000a900473ffffffffffffffffffffffffffffffffffffffff1673ffffffffffffffffffffffffffffffffffffffff1663dd62ed3e33306040518363ffffffff1660e01b81526004016103d792919061124b565b602060405180830381865afa1580156103f4573d6000803e3d6000fd5b505050506040513d601f19601f820116820180604052508101906104189190611289565b9050610424565b600090505b919050565b6040518060400160405280600481526020017f676f6c6400000000000000000000000000000000000000000000000000000000815250805190602001208280519060200120141561062957806104b36040518060400160405280600481526020017f676f6c640000000000000000000000000000000000000000000000000000000081525061014f565b10156104f4576040517f08c379a00000000000000000000000000000000000000000000000000000000081526004016104eb90611339565b60405180910390fd5b60008054906101000a900473ffffffffffffffffffffffffffffffffffffffff1673ffffffffffffffffffffffffffffffffffffffff166323b872dd3330846040518463ffffffff1660e01b815260040161055193929190611359565b6020604051808303816000875af1158015610570573d6000803e3d6000fd5b505050506040513d601f19601f8201168201806040525081019061059491906113c8565b50600260009054906101000a900473ffffffffffffffffffffffffffffffffffffffff1673ffffffffffffffffffffffffffffffffffffffff166340c10f1933836040518363ffffffff1660e01b81526004016105f29291906113f5565b600060405180830381600087803b15801561060c57600080fd5b505af1158015610620573d6000803e3d6000fd5b50505050610828565b6040518060400160405280600681526020017f73696c7665720000000000000000000000000000000000000000000000000000815250805190602001208280519060200120141561082757806106b36040518060400160405280600681526020017f73696c766572000000000000000000000000000000000000000000000000000081525061014f565b10156106f4576040517f08c379a00000000000000000000000000000000000000000000000000000000081526004016106eb90611339565b60405180910390fd5b600160009054906101000a900473ffffffffffffffffffffffffffffffffffffffff1673ffffffffffffffffffffffffffffffffffffffff166323b872dd3330846040518463ffffffff1660e01b815260040161075393929190611359565b6020604051808303816000875af1158015610772573d6000803e3d6000fd5b505050506040513d601f19601f8201168201806040525081019061079691906113c8565b50600260009054906101000a900473ffffffffffffffffffffffffffffffffffffffff1673ffffffffffffffffffffffffffffffffffffffff166340c10f1933836040518363ffffffff1660e01b81526004016107f49291906113f5565b600060405180830381600087803b15801561080e57600080fd5b505af1158015610822573d6000803e3d6000fd5b505050505b5b5050565b600260009054906101000a900473ffffffffffffffffffffffffffffffffffffffff1681565b806108916040518060400160405280600881526020017f706c6174696e756d00000000000000000000000000000000000000000000000081525061014f565b10156108d2576040517f08c379a00000000000000000000000000000000000000000000000000000000081526004016108c990611339565b60405180910390fd5b6040518060400160405280600481526020017f676f6c64000000000000000000000000000000000000000000000000000000008152508051906020012082805190602001201415610bcf578060008054906101000a900473ffffffffffffffffffffffffffffffffffffffff1673ffffffffffffffffffffffffffffffffffffffff166370a08231306040518263ffffffff1660e01b8152600401610977919061141e565b602060405180830381865afa158015610994573d6000803e3d6000fd5b505050506040513d601f19601f820116820180604052508101906109b89190611289565b10156109f9576040517f08c379a00000000000000000000000000000000000000000000000000000000081526004016109f090611339565b60405180910390fd5b600260009054906101000a900473ffffffffffffffffffffffffffffffffffffffff1673ffffffffffffffffffffffffffffffffffffffff166323b872dd3330846040518463ffffffff1660e01b8152600401610a5893929190611359565b6020604051808303816000875af1158015610a77573d6000803e3d6000fd5b505050506040513d601f19601f82011682018060405250810190610a9b91906113c8565b50600260009054906101000a900473ffffffffffffffffffffffffffffffffffffffff1673ffffffffffffffffffffffffffffffffffffffff16639dc29fac30836040518363ffffffff1660e01b8152600401610af99291906113f5565b600060405180830381600087803b158015610b1357600080fd5b505af1158015610b27573d6000803e3d6000fd5b5050505060008054906101000a900473ffffffffffffffffffffffffffffffffffffffff1673ffffffffffffffffffffffffffffffffffffffff1663a9059cbb33836040518363ffffffff1660e01b8152600401610b869291906113f5565b6020604051808303816000875af1158015610ba5573d6000803e3d6000fd5b505050506040513d601f19601f82011682018060405250810190610bc991906113c8565b50610ecd565b6040518060400160405280600681526020017f73696c76657200000000000000000000000000000000000000000000000000008152508051906020012082805190602001201415610ecc5780600160009054906101000a900473ffffffffffffffffffffffffffffffffffffffff1673ffffffffffffffffffffffffffffffffffffffff166370a08231306040518263ffffffff1660e01b8152600401610c76919061141e565b602060405180830381865afa158015610c93573d6000803e3d6000fd5b505050506040513d601f19601f82011682018060405250810190610cb79190611289565b1015610cf8576040517f08c379a0000000000000000000000000000000000000000000000000000000008152600401610cef90611339565b60405180910390fd5b600260009054906101000a900473ffffffffffffffffffffffffffffffffffffffff1673ffffffffffffffffffffffffffffffffffffffff166323b872dd3330846040518463ffffffff1660e01b8152600401610d5793929190611359565b6020604051808303816000875af1158015610d76573d6000803e3d6000fd5b505050506040513d601f19601f82011682018060405250810190610d9a91906113c8565b50600260009054906101000a900473ffffffffffffffffffffffffffffffffffffffff1673ffffffffffffffffffffffffffffffffffffffff16639dc29fac30836040518363ffffffff1660e01b8152600401610df89291906113f5565b600060405180830381600087803b158015610e1257600080fd5b505af1158015610e26573d6000803e3d6000fd5b50505050600160009054906101000a900473ffffffffffffffffffffffffffffffffffffffff1673ffffffffffffffffffffffffffffffffffffffff1663a9059cbb33836040518363ffffffff1660e01b8152600401610e879291906113f5565b6020604051808303816000875af1158015610ea6573d6000803e3d6000fd5b505050506040513d601f19601f82011682018060405250810190610eca91906113c8565b505b5b5050565b60008054906101000a900473ffffffffffffffffffffffffffffffffffffffff1681565b600073ffffffffffffffffffffffffffffffffffffffff82169050919050565b6000819050919050565b6000610f3a610f35610f3084610ef5565b610f15565b610ef5565b9050919050565b6000610f4c82610f1f565b9050919050565b6000610f5e82610f41565b9050919050565b610f6e81610f53565b82525050565b6000602082019050610f896000830184610f65565b92915050565b6000604051905090565b600080fd5b600080fd5b600080fd5b600080fd5b6000601f19601f8301169050919050565b7f4e487b7100000000000000000000000000000000000000000000000000000000600052604160045260246000fd5b610ff682610fad565b810181811067ffffffffffffffff8211171561101557611014610fbe565b5b80604052505050565b6000611028610f8f565b90506110348282610fed565b919050565b600067ffffffffffffffff82111561105457611053610fbe565b5b61105d82610fad565b9050602081019050919050565b82818337600083830152505050565b600061108c61108784611039565b61101e565b9050828152602081018484840111156110a8576110a7610fa8565b5b6110b384828561106a565b509392505050565b600082601f8301126110d0576110cf610fa3565b5b81356110e0848260208601611079565b91505092915050565b6000602082840312156110ff576110fe610f99565b5b600082013567ffffffffffffffff81111561111d5761111c610f9e565b5b611129848285016110bb565b91505092915050565b6000819050919050565b61114581611132565b82525050565b6000602082019050611160600083018461113c565b92915050565b61116f81611132565b811461117a57600080fd5b50565b60008135905061118c81611166565b92915050565b600080604083850312156111a9576111a8610f99565b5b600083013567ffffffffffffffff8111156111c7576111c6610f9e565b5b6111d3858286016110bb565b92505060206111e48582860161117d565b9150509250929050565b60006111f982610f41565b9050919050565b611209816111ee565b82525050565b60006020820190506112246000830184611200565b92915050565b600061123582610ef5565b9050919050565b6112458161122a565b82525050565b6000604082019050611260600083018561123c565b61126d602083018461123c565b9392505050565b60008151905061128381611166565b92915050565b60006020828403121561129f5761129e610f99565b5b60006112ad84828501611274565b91505092915050565b600082825260208201905092915050565b7f506c6561736520616c6c6f77207468697320636f6e747261637420746f20747260008201527f616e736665722066756e64730000000000000000000000000000000000000000602082015250565b6000611323602c836112b6565b915061132e826112c7565b604082019050919050565b6000602082019050818103600083015261135281611316565b9050919050565b600060608201905061136e600083018661123c565b61137b602083018561123c565b611388604083018461113c565b949350505050565b60008115159050919050565b6113a581611390565b81146113b057600080fd5b50565b6000815190506113c28161139c565b92915050565b6000602082840312156113de576113dd610f99565b5b60006113ec848285016113b3565b91505092915050565b600060408201905061140a600083018561123c565b611417602083018461113c565b9392505050565b6000602082019050611433600083018461123c565b9291505056fea264697066735822122008d9ad9b92dc7b30f5abe8a6dc388388e1e851853fad92a5389a5376b8d7f91364736f6c634300080a0033",
  "immutableReferences": {},
  "source": "\n// SPDX-License-Identifier: MIT\npragma solidity ^0.8.10;\n\nimport \"@openzeppelin/contracts/token/ERC20/IERC20.sol\";\ninterface IERC20MB {\n    function totalSupply() external view returns (uint256);\n    function balanceOf(address account) external view returns (uint256);\n    function transfer(address recipient, uint256 amount) external returns (bool);\n\n    function allowance(address owner, address spender) external view returns (uint256);\n\n    function approve(address spender, uint256 amount) external returns (bool);\n    function transferFrom(\n        address sender,\n        address recipient,\n        uint256 amount\n    ) external returns (bool);\n\n    event Transfer(address indexed from, address indexed to, uint256 value);\n    event Approval(address indexed owner, address indexed spender, uint256 value);\n    function mint(address _address, uint amount) external;\n    function burn(address _address, uint amount) external;\n}\ncontract Swapper{\n    IERC20 public gold;\n    IERC20 public silver;\n    IERC20MB public platinum;\n    constructor(address _g_address,address _s_address, address _p_address){\n        gold = IERC20(_g_address);\n        silver = IERC20(_s_address);\n        platinum = IERC20MB(_p_address);\n    }\n    function allowance(string memory coin)public view returns(uint){\n        if(keccak256(bytes(coin))==keccak256(bytes(\"gold\"))){\n            return gold.allowance(msg.sender, address(this));\n        }\n        else if(keccak256(bytes(coin))==keccak256(bytes(\"silver\"))){\n            return silver.allowance(msg.sender, address(this));\n        }\n        else if(keccak256(bytes(coin))==keccak256(bytes(\"platinum\"))){\n            return platinum.allowance(msg.sender, address(this));\n        }\n        else{\n            return uint(0);\n        }\n    }\n    function swap(string memory token_, uint amount) external {\n         if(keccak256(bytes(token_))==keccak256(bytes(\"gold\"))){\n            require(allowance(\"gold\")>=amount,\"Please allow this contract to transfer funds\");\n            gold.transferFrom(msg.sender, address(this), amount);\n            platinum.mint(msg.sender,amount);\n        }\n        else if(keccak256(bytes(token_))==keccak256(bytes(\"silver\"))){\n            require(allowance(\"silver\")>=amount,\"Please allow this contract to transfer funds\");\n            silver.transferFrom(msg.sender, address(this), amount);\n            platinum.mint(msg.sender,amount);\n        }\n    }\n    function unswap(string memory token_, uint amount) external {\n        require(allowance(\"platinum\")>=amount,\"Please allow this contract to transfer funds\");\n        if(keccak256(bytes(token_))==keccak256(bytes(\"gold\"))){\n            require(gold.balanceOf(address(this))>=amount,\"Please allow this contract to transfer funds\");\n            platinum.transferFrom(msg.sender, address(this), amount);\n            platinum.burn(address(this),amount);\n            gold.transfer(msg.sender, amount);\n        }\n        else if(keccak256(bytes(token_))==keccak256(bytes(\"silver\"))){\n            require(silver.balanceOf(address(this))>=amount,\"Please allow this contract to transfer funds\");\n            platinum.transferFrom(msg.sender, address(this), amount);\n            platinum.burn(address(this),amount);\n            silver.transfer(msg.sender, amount);\n        }\n    }\n}",
  "sourcePath": "/home/harsh/Desktop/ETHEREUM_PROJECTS/ERC20-swap-smart-contract/solution/contracts/stub.sol",
  "compiler": {
    "name": "solc",
    "version": "0.8.10+commit.fc410830.Emscripten.clang"
  },
  "schemaVersion": "3.4.3",
  "updatedAt": "2022-01-16T13:22:36.728Z",
  "networkType": "ethereum",
  "devdoc": {
    "kind": "dev",
    "methods": {},
    "version": 1
  },
  "userdoc": {
    "kind": "user",
    "methods": {},
    "version": 1
  }
}