{
  "contractName": "Swapper",
  "abi": [
    {
      "inputs": [
        {
          "internalType": "address",
          "name": "_g_address",
          "type": "address"
        },
        {
          "internalType": "address",
          "name": "_s_address",
          "type": "address"
        },
        {
          "internalType": "address",
          "name": "_p_address",
          "type": "address"
        }
      ],
      "stateMutability": "nonpayable",
      "type": "constructor"
    },
    {
      "inputs": [],
      "name": "gold",
      "outputs": [
        {
          "internalType": "contract IERC20",
          "name": "",
          "type": "address"
        }
      ],
      "stateMutability": "view",
      "type": "function"
    },
    {
      "inputs": [],
      "name": "platinum",
      "outputs": [
        {
          "internalType": "contract IERC20MB",
          "name": "",
          "type": "address"
        }
      ],
      "stateMutability": "view",
      "type": "function"
    },
    {
      "inputs": [],
      "name": "silver",
      "outputs": [
        {
          "internalType": "contract IERC20",
          "name": "",
          "type": "address"
        }
      ],
      "stateMutability": "view",
      "type": "function"
    },
    {
      "inputs": [
        {
          "internalType": "string",
          "name": "coin",
          "type": "string"
        }
      ],
      "name": "allowance",
      "outputs": [
        {
          "internalType": "uint256",
          "name": "",
          "type": "uint256"
        }
      ],
      "stateMutability": "view",
      "type": "function"
    },
    {
      "inputs": [
        {
          "internalType": "string",
          "name": "token_",
          "type": "string"
        },
        {
          "internalType": "uint256",
          "name": "amount",
          "type": "uint256"
        }
      ],
      "name": "swap",
      "outputs": [],
      "stateMutability": "nonpayable",
      "type": "function"
    },
    {
      "inputs": [
        {
          "internalType": "string",
          "name": "token_",
          "type": "string"
        },
        {
          "internalType": "uint256",
          "name": "amount",
          "type": "uint256"
        }
      ],
      "name": "unswap",
      "outputs": [],
      "stateMutability": "nonpayable",
      "type": "function"
    }
  ],
  "bytecode": "0x60806040523480156200001157600080fd5b506040516200164b3803806200164b83398181016040528101906200003791906200016c565b826000806101000a81548173ffffffffffffffffffffffffffffffffffffffff021916908373ffffffffffffffffffffffffffffffffffffffff16021790555081600160006101000a81548173ffffffffffffffffffffffffffffffffffffffff021916908373ffffffffffffffffffffffffffffffffffffffff16021790555080600260006101000a81548173ffffffffffffffffffffffffffffffffffffffff021916908373ffffffffffffffffffffffffffffffffffffffff160217905550505050620001c8565b600080fd5b600073ffffffffffffffffffffffffffffffffffffffff82169050919050565b6000620001348262000107565b9050919050565b620001468162000127565b81146200015257600080fd5b50565b60008151905062000166816200013b565b92915050565b60008060006060848603121562000188576200018762000102565b5b6000620001988682870162000155565b9350506020620001ab8682870162000155565b9250506040620001be8682870162000155565b9150509250925092565b61147380620001d86000396000f3fe608060405234801561001057600080fd5b50600436106100625760003560e01c80630314214c146100675780637625f5ae146100855780639d456b62146100b5578063c937b0a9146100d1578063f7aff659146100ef578063fbec6f211461010b575b600080fd5b61006f610129565b60405161007c9190610f78565b60405180910390f35b61009f600480360381019061009a91906110ed565b61014f565b6040516100ac919061114f565b60405180910390f35b6100cf60048036038101906100ca9190611196565b610429565b005b6100d961082c565b6040516100e69190611213565b60405180910390f35b61010960048036038101906101049190611196565b610852565b005b610113610ed5565b6040516101209190610f78565b60405180910390f35b600160009054906101000a900473ffffffffffffffffffffffffffffffffffffffff1681565b60006040518060400160405280600481526020017f676f6c6400000000000000000000000000000000000000000000000000000000815250805190602001208280519060200120141561023f5760008054906101000a900473ffffffffffffffffffffffffffffffffffffffff1673ffffffffffffffffffffffffffffffffffffffff1663dd62ed3e33306040518363ffffffff1660e01b81526004016101f792919061124f565b602060405180830381865afa158015610214573d6000803e3d6000fd5b505050506040513d601f19601f82011682018060405250810190610238919061128d565b9050610424565b6040518060400160405280600681526020017f73696c7665720000000000000000000000000000000000000000000000000000815250805190602001208280519060200120141561032f57600160009054906101000a900473ffffffffffffffffffffffffffffffffffffffff1673ffffffffffffffffffffffffffffffffffffffff1663dd62ed3e33306040518363ffffffff1660e01b81526004016102e792919061124f565b602060405180830381865afa158015610304573d6000803e3d6000fd5b505050506040513d601f19601f82011682018060405250810190610328919061128d565b9050610424565b6040518060400160405280600881526020017f706c6174696e756d000000000000000000000000000000000000000000000000815250805190602001208280519060200120141561041f57600260009054906101000a900473ffffffffffffffffffffffffffffffffffffffff1673ffffffffffffffffffffffffffffffffffffffff1663dd62ed3e33306040518363ffffffff1660e01b81526004016103d792919061124f565b602060405180830381865afa1580156103f4573d6000803e3d6000fd5b505050506040513d601f19601f82011682018060405250810190610418919061128d565b9050610424565b600090505b919050565b6040518060400160405280600481526020017f676f6c6400000000000000000000000000000000000000000000000000000000815250805190602001208280519060200120141561062957806104b36040518060400160405280600481526020017f676f6c640000000000000000000000000000000000000000000000000000000081525061014f565b10156104f4576040517f08c379a00000000000000000000000000000000000000000000000000000000081526004016104eb9061133d565b60405180910390fd5b60008054906101000a900473ffffffffffffffffffffffffffffffffffffffff1673ffffffffffffffffffffffffffffffffffffffff166323b872dd3330846040518463ffffffff1660e01b81526004016105519392919061135d565b6020604051808303816000875af1158015610570573d6000803e3d6000fd5b505050506040513d601f19601f8201168201806040525081019061059491906113cc565b50600260009054906101000a900473ffffffffffffffffffffffffffffffffffffffff1673ffffffffffffffffffffffffffffffffffffffff166340c10f1933836040518363ffffffff1660e01b81526004016105f29291906113f9565b600060405180830381600087803b15801561060c57600080fd5b505af1158015610620573d6000803e3d6000fd5b50505050610828565b6040518060400160405280600681526020017f73696c7665720000000000000000000000000000000000000000000000000000815250805190602001208280519060200120141561082757806106b36040518060400160405280600681526020017f73696c766572000000000000000000000000000000000000000000000000000081525061014f565b10156106f4576040517f08c379a00000000000000000000000000000000000000000000000000000000081526004016106eb9061133d565b60405180910390fd5b600160009054906101000a900473ffffffffffffffffffffffffffffffffffffffff1673ffffffffffffffffffffffffffffffffffffffff166323b872dd3330846040518463ffffffff1660e01b81526004016107539392919061135d565b6020604051808303816000875af1158015610772573d6000803e3d6000fd5b505050506040513d601f19601f8201168201806040525081019061079691906113cc565b50600260009054906101000a900473ffffffffffffffffffffffffffffffffffffffff1673ffffffffffffffffffffffffffffffffffffffff166340c10f1933836040518363ffffffff1660e01b81526004016107f49291906113f9565b600060405180830381600087803b15801561080e57600080fd5b505af1158015610822573d6000803e3d6000fd5b505050505b5b5050565b600260009054906101000a900473ffffffffffffffffffffffffffffffffffffffff1681565b806108916040518060400160405280600881526020017f706c6174696e756d00000000000000000000000000000000000000000000000081525061014f565b10156108d2576040517f08c379a00000000000000000000000000000000000000000000000000000000081526004016108c99061133d565b60405180910390fd5b6040518060400160405280600481526020017f676f6c64000000000000000000000000000000000000000000000000000000008152508051906020012082805190602001201415610bd1578060008054906101000a900473ffffffffffffffffffffffffffffffffffffffff1673ffffffffffffffffffffffffffffffffffffffff166370a08231306040518263ffffffff1660e01b81526004016109779190611422565b602060405180830381865afa158015610994573d6000803e3d6000fd5b505050506040513d601f19601f820116820180604052508101906109b8919061128d565b10156109f9576040517f08c379a00000000000000000000000000000000000000000000000000000000081526004016109f09061133d565b60405180910390fd5b600260009054906101000a900473ffffffffffffffffffffffffffffffffffffffff1673ffffffffffffffffffffffffffffffffffffffff166323b872dd3330846040518463ffffffff1660e01b8152600401610a589392919061135d565b6020604051808303816000875af1158015610a77573d6000803e3d6000fd5b505050506040513d601f19601f82011682018060405250810190610a9b91906113cc565b50600260009054906101000a900473ffffffffffffffffffffffffffffffffffffffff1673ffffffffffffffffffffffffffffffffffffffff16639dc29fac30836040518363ffffffff1660e01b8152600401610af99291906113f9565b600060405180830381600087803b158015610b1357600080fd5b505af1158015610b27573d6000803e3d6000fd5b5050505060008054906101000a900473ffffffffffffffffffffffffffffffffffffffff1673ffffffffffffffffffffffffffffffffffffffff166323b872dd3033846040518463ffffffff1660e01b8152600401610b889392919061135d565b6020604051808303816000875af1158015610ba7573d6000803e3d6000fd5b505050506040513d601f19601f82011682018060405250810190610bcb91906113cc565b50610ed1565b6040518060400160405280600681526020017f73696c76657200000000000000000000000000000000000000000000000000008152508051906020012082805190602001201415610ed05780600160009054906101000a900473ffffffffffffffffffffffffffffffffffffffff1673ffffffffffffffffffffffffffffffffffffffff166370a08231306040518263ffffffff1660e01b8152600401610c789190611422565b602060405180830381865afa158015610c95573d6000803e3d6000fd5b505050506040513d601f19601f82011682018060405250810190610cb9919061128d565b1015610cfa576040517f08c379a0000000000000000000000000000000000000000000000000000000008152600401610cf19061133d565b60405180910390fd5b600260009054906101000a900473ffffffffffffffffffffffffffffffffffffffff1673ffffffffffffffffffffffffffffffffffffffff166323b872dd3330846040518463ffffffff1660e01b8152600401610d599392919061135d565b6020604051808303816000875af1158015610d78573d6000803e3d6000fd5b505050506040513d601f19601f82011682018060405250810190610d9c91906113cc565b50600260009054906101000a900473ffffffffffffffffffffffffffffffffffffffff1673ffffffffffffffffffffffffffffffffffffffff16639dc29fac30836040518363ffffffff1660e01b8152600401610dfa9291906113f9565b600060405180830381600087803b158015610e1457600080fd5b505af1158015610e28573d6000803e3d6000fd5b50505050600160009054906101000a900473ffffffffffffffffffffffffffffffffffffffff1673ffffffffffffffffffffffffffffffffffffffff166323b872dd3033846040518463ffffffff1660e01b8152600401610e8b9392919061135d565b6020604051808303816000875af1158015610eaa573d6000803e3d6000fd5b505050506040513d601f19601f82011682018060405250810190610ece91906113cc565b505b5b5050565b60008054906101000a900473ffffffffffffffffffffffffffffffffffffffff1681565b600073ffffffffffffffffffffffffffffffffffffffff82169050919050565b6000819050919050565b6000610f3e610f39610f3484610ef9565b610f19565b610ef9565b9050919050565b6000610f5082610f23565b9050919050565b6000610f6282610f45565b9050919050565b610f7281610f57565b82525050565b6000602082019050610f8d6000830184610f69565b92915050565b6000604051905090565b600080fd5b600080fd5b600080fd5b600080fd5b6000601f19601f8301169050919050565b7f4e487b7100000000000000000000000000000000000000000000000000000000600052604160045260246000fd5b610ffa82610fb1565b810181811067ffffffffffffffff8211171561101957611018610fc2565b5b80604052505050565b600061102c610f93565b90506110388282610ff1565b919050565b600067ffffffffffffffff82111561105857611057610fc2565b5b61106182610fb1565b9050602081019050919050565b82818337600083830152505050565b600061109061108b8461103d565b611022565b9050828152602081018484840111156110ac576110ab610fac565b5b6110b784828561106e565b509392505050565b600082601f8301126110d4576110d3610fa7565b5b81356110e484826020860161107d565b91505092915050565b60006020828403121561110357611102610f9d565b5b600082013567ffffffffffffffff81111561112157611120610fa2565b5b61112d848285016110bf565b91505092915050565b6000819050919050565b61114981611136565b82525050565b60006020820190506111646000830184611140565b92915050565b61117381611136565b811461117e57600080fd5b50565b6000813590506111908161116a565b92915050565b600080604083850312156111ad576111ac610f9d565b5b600083013567ffffffffffffffff8111156111cb576111ca610fa2565b5b6111d7858286016110bf565b92505060206111e885828601611181565b9150509250929050565b60006111fd82610f45565b9050919050565b61120d816111f2565b82525050565b60006020820190506112286000830184611204565b92915050565b600061123982610ef9565b9050919050565b6112498161122e565b82525050565b60006040820190506112646000830185611240565b6112716020830184611240565b9392505050565b6000815190506112878161116a565b92915050565b6000602082840312156112a3576112a2610f9d565b5b60006112b184828501611278565b91505092915050565b600082825260208201905092915050565b7f506c6561736520616c6c6f77207468697320636f6e747261637420746f20747260008201527f616e736665722066756e64730000000000000000000000000000000000000000602082015250565b6000611327602c836112ba565b9150611332826112cb565b604082019050919050565b600060208201905081810360008301526113568161131a565b9050919050565b60006060820190506113726000830186611240565b61137f6020830185611240565b61138c6040830184611140565b949350505050565b60008115159050919050565b6113a981611394565b81146113b457600080fd5b50565b6000815190506113c6816113a0565b92915050565b6000602082840312156113e2576113e1610f9d565b5b60006113f0848285016113b7565b91505092915050565b600060408201905061140e6000830185611240565b61141b6020830184611140565b9392505050565b60006020820190506114376000830184611240565b9291505056fea2646970667358221220c43dc4d0e1216052a78e48d768531cb24a08c3b6fc92f22b0d0768d539a3f47764736f6c634300080a0033",
  "immutableReferences": {},
  "source": "\n// SPDX-License-Identifier: MIT\npragma solidity ^0.8.10;\n\nimport \"@openzeppelin/contracts/token/ERC20/IERC20.sol\";\ninterface IERC20MB {\n    function totalSupply() external view returns (uint256);\n    function balanceOf(address account) external view returns (uint256);\n    function transfer(address recipient, uint256 amount) external returns (bool);\n\n    function allowance(address owner, address spender) external view returns (uint256);\n\n    function approve(address spender, uint256 amount) external returns (bool);\n    function transferFrom(\n        address sender,\n        address recipient,\n        uint256 amount\n    ) external returns (bool);\n\n    event Transfer(address indexed from, address indexed to, uint256 value);\n    event Approval(address indexed owner, address indexed spender, uint256 value);\n    function mint(address _address, uint amount) external;\n    function burn(address _address, uint amount) external;\n}\ncontract Swapper{\n    IERC20 public gold;\n    IERC20 public silver;\n    IERC20MB public platinum;\n    constructor(address _g_address,address _s_address, address _p_address){\n        gold = IERC20(_g_address);\n        silver = IERC20(_s_address);\n        platinum = IERC20MB(_p_address);\n    }\n    function allowance(string memory coin)public view returns(uint){\n        if(keccak256(bytes(coin))==keccak256(bytes(\"gold\"))){\n            return gold.allowance(msg.sender, address(this));\n        }\n        else if(keccak256(bytes(coin))==keccak256(bytes(\"silver\"))){\n            return silver.allowance(msg.sender, address(this));\n        }\n        else if(keccak256(bytes(coin))==keccak256(bytes(\"platinum\"))){\n            return platinum.allowance(msg.sender, address(this));\n        }\n        else{\n            return uint(0);\n        }\n    }\n    function swap(string memory token_, uint amount) external {\n         if(keccak256(bytes(token_))==keccak256(bytes(\"gold\"))){\n            require(allowance(\"gold\")>=amount,\"Please allow this contract to transfer funds\");\n            gold.transferFrom(msg.sender, address(this), amount);\n            platinum.mint(msg.sender,amount);\n        }\n        else if(keccak256(bytes(token_))==keccak256(bytes(\"silver\"))){\n            require(allowance(\"silver\")>=amount,\"Please allow this contract to transfer funds\");\n            silver.transferFrom(msg.sender, address(this), amount);\n            platinum.mint(msg.sender,amount);\n        }\n    }\n    function unswap(string memory token_, uint amount) external {\n        require(allowance(\"platinum\")>=amount,\"Please allow this contract to transfer funds\");\n        if(keccak256(bytes(token_))==keccak256(bytes(\"gold\"))){\n            require(gold.balanceOf(address(this))>=amount,\"Please allow this contract to transfer funds\");\n            platinum.transferFrom(msg.sender, address(this), amount);\n            platinum.burn(address(this),amount);\n            gold.transferFrom(address(this),msg.sender, amount);\n        }\n        else if(keccak256(bytes(token_))==keccak256(bytes(\"silver\"))){\n            require(silver.balanceOf(address(this))>=amount,\"Please allow this contract to transfer funds\");\n            platinum.transferFrom(msg.sender, address(this), amount);\n            platinum.burn(address(this),amount);\n            silver.transferFrom(address(this),msg.sender, amount);\n        }\n    }\n}",
  "sourcePath": "/home/harsh/Downloads/challenge/solution/contracts/stub.sol",
  "compiler": {
    "name": "solc",
    "version": "0.8.10+commit.fc410830.Emscripten.clang"
  },
  "schemaVersion": "3.4.3",
  "updatedAt": "2022-01-15T19:58:08.039Z",
  "devdoc": {
    "kind": "dev",
    "methods": {},
    "version": 1
  },
  "userdoc": {
    "kind": "user",
    "methods": {},
    "version": 1
  }
}