{
  "contractName": "BaseContract",
  "abi": [
    {
      "inputs": [
        {
          "internalType": "address",
          "name": "_address",
          "type": "address"
        }
      ],
      "stateMutability": "nonpayable",
      "type": "constructor"
    },
    {
      "inputs": [],
      "name": "obj",
      "outputs": [
        {
          "internalType": "contract OracleInterface",
          "name": "",
          "type": "address"
        }
      ],
      "stateMutability": "view",
      "type": "function",
      "constant": true
    },
    {
      "inputs": [],
      "name": "randomNumber",
      "outputs": [
        {
          "internalType": "uint256",
          "name": "",
          "type": "uint256"
        }
      ],
      "stateMutability": "view",
      "type": "function",
      "constant": true
    },
    {
      "inputs": [],
      "name": "requestOracle",
      "outputs": [],
      "stateMutability": "nonpayable",
      "type": "function"
    },
    {
      "inputs": [
        {
          "internalType": "uint256",
          "name": "_randomNumber",
          "type": "uint256"
        },
        {
          "internalType": "uint256",
          "name": "_requestId",
          "type": "uint256"
        }
      ],
      "name": "callback",
      "outputs": [],
      "stateMutability": "nonpayable",
      "type": "function"
    }
  ],
  "bytecode": "0x60806040526000805534801561001457600080fd5b506040516105a93803806105a9833981810160405281019061003691906100e0565b80600160006101000a81548173ffffffffffffffffffffffffffffffffffffffff021916908373ffffffffffffffffffffffffffffffffffffffff1602179055505061010d565b600080fd5b600073ffffffffffffffffffffffffffffffffffffffff82169050919050565b60006100ad82610082565b9050919050565b6100bd816100a2565b81146100c857600080fd5b50565b6000815190506100da816100b4565b92915050565b6000602082840312156100f6576100f561007d565b5b6000610104848285016100cb565b91505092915050565b61048d8061011c6000396000f3fe608060405234801561001057600080fd5b506004361061004c5760003560e01c806347c89ec614610051578063b5d73ba41461005b578063ccbac9f514610077578063e31f2d6e14610095575b600080fd5b6100596100b3565b005b6100756004803603810190610070919061026e565b610179565b005b61007f610207565b60405161008c91906102bd565b60405180910390f35b61009d61020d565b6040516100aa9190610357565b60405180910390f35b6000600160009054906101000a900473ffffffffffffffffffffffffffffffffffffffff1673ffffffffffffffffffffffffffffffffffffffff16636ac05ca36040518163ffffffff1660e01b81526004016020604051808303816000875af1158015610124573d6000803e3d6000fd5b505050506040513d601f19601f820116820180604052508101906101489190610387565b905060016002600083815260200190815260200160002060006101000a81548160ff02191690831515021790555050565b6002600082815260200190815260200160002060009054906101000a900460ff166101d9576040517f08c379a00000000000000000000000000000000000000000000000000000000081526004016101d090610437565b60405180910390fd5b816000819055506002600082815260200190815260200160002060006101000a81549060ff02191690555050565b60005481565b600160009054906101000a900473ffffffffffffffffffffffffffffffffffffffff1681565b600080fd5b6000819050919050565b61024b81610238565b811461025657600080fd5b50565b60008135905061026881610242565b92915050565b6000806040838503121561028557610284610233565b5b600061029385828601610259565b92505060206102a485828601610259565b9150509250929050565b6102b781610238565b82525050565b60006020820190506102d260008301846102ae565b92915050565b600073ffffffffffffffffffffffffffffffffffffffff82169050919050565b6000819050919050565b600061031d610318610313846102d8565b6102f8565b6102d8565b9050919050565b600061032f82610302565b9050919050565b600061034182610324565b9050919050565b61035181610336565b82525050565b600060208201905061036c6000830184610348565b92915050565b60008151905061038181610242565b92915050565b60006020828403121561039d5761039c610233565b5b60006103ab84828501610372565b91505092915050565b600082825260208201905092915050565b7f546869732072657175657374206973206e6f7420696e206d792070656e64696e60008201527f67206c6973742e00000000000000000000000000000000000000000000000000602082015250565b60006104216027836103b4565b915061042c826103c5565b604082019050919050565b6000602082019050818103600083015261045081610414565b905091905056fea26469706673582212200d61e6635af605acf34987a94a4db1c15f39c956cf00b03b7e9bcfdfbf01df5864736f6c634300080a0033",
  "immutableReferences": {},
  "source": "// SPDX-License-Identifier: MIT\npragma solidity ^0.8.0;\n\ninterface OracleInterface{\n   function receiveRequest() external returns (uint256);\n}\ncontract BaseContract{\n  uint public randomNumber = 0;\n  OracleInterface public obj;\n  mapping(uint256=>bool) myRequests;\n    constructor( address _address){\n        obj = OracleInterface(_address);\n    }\n    function requestOracle() public{\n        uint requestId = obj.receiveRequest();\n        myRequests[requestId] = true;\n    }\n    function callback(uint256 _randomNumber, uint256 _requestId) public  {\n        require(myRequests[_requestId], \"This request is not in my pending list.\");\n        randomNumber = _randomNumber;\n        delete myRequests[_requestId];\n      }\n}",
  "sourcePath": "/home/harsh/Desktop/ETHEREUM_PROJECTS/Oracle-Example/BaseContract/contracts/BaseContract.sol",
  "compiler": {
    "name": "solc",
    "version": "0.8.10+commit.fc410830.Emscripten.clang"
  },
  "schemaVersion": "3.4.3",
  "updatedAt": "2022-01-05T18:46:35.448Z",
  "networkType": "ethereum",
  "devdoc": {
    "kind": "dev",
    "methods": {},
    "version": 1
  },
  "userdoc": {
    "kind": "user",
    "methods": {},
    "version": 1
  }
}